:020000040800F2
:1000000000800020850A00080D0A0008130A000875
:10001000190A00081F0A0008250A0008000000004D
:100020000000000000000000000000002B0A000893
:10003000390A000800000000470A0008550A0008B5
:10004000D50A0008D50A0008D50A0008D50A000814
:10005000D50A0008D50A0008D50A0008D50A000804
:10006000D50A0008D50A0008D50A0008D50A0008F4
:10007000D50A0008D50A0008D50A0008D50A0008E4
:10008000D50A000800000000D50A0008D50A0008BB
:10009000D50A0008D50A0008D50A0008D50A0008C4
:1000A000D50A0008D50A0008D50A0008D50A0008B4
:1000B000D50A0008D50A0008D50A0008D50A0008A4
:1000C000D50A0008D50A0008D50A0008D50A000894
:1000D000D50A0008D50A0008D50A0008D50A000884
:1000E000D50A0008D50A0008D50A0008D50A000874
:1000F000D50A0008D50A0008D50A0008000000004B
:1001000000000000D50A000800000000D50A000821
:10011000D50A000800000000D50A0008D50A00082A
:10012000D50A0008D50A0008D50A0008D50A000833
:10013000D50A00080000000000000000D50A0008F1
:10014000D50A0008D50A00080000000000000000E1
:10015000000000000000000000000000000000009F
:10016000000000000000000000000000D50A0008A8
:10017000D50A000800000000000000000000000098
:1001800000000000D50A0008000000000000000088
:10019000000000000000000000000000000000005F
:1001A0000000000000000000D50A0008D50A000881
:1001B000D50A0008D50A0008D50A0008000000008A
:1001C00000000000D50A0008000000000000000048
:0801D000D50A0008D50A000859
:1001D80010B5054C237833B9044B13B10448AFF379
:1001E80000800123237010BD0C00002000000000D7
:1001F8002833000808B5034B1BB103490348AFF384
:10020800008008BD0000000010000020283300080E
:1002180053B94AB9002908BF00281CBF4FF0FF3165
:100228004FF0FF3000F074B9ADF1080C6DE904CE61
:1002380000F006F8DDF804E0DDE9022304B07047B9
:100248002DE9F047089D04468E46002B4DD18A4281
:10025800944669D9B2FA82F252B101FA02F3C2F1B4
:10026800200120FA01F10CFA02FC41EA030E944045
:100278004FEA1C48210CBEFBF8F61FFA8CF708FB66
:1002880016E341EA034306FB07F199420AD91CEB3E
:10029800030306F1FF3080F01F81994240F21C8170
:1002A800023E63445B1AA4B2B3FBF8F008FB1033B8
:1002B80044EA034400FB07F7A7420AD91CEB0404ED
:1002C80000F1FF3380F00A81A74240F207816444BD
:1002D800023840EA0640E41B00261DB1D440002342
:1002E800C5E900433146BDE8F0878B4209D9002DA6
:1002F80000F0EF800026C5E9000130463146BDE830
:10030800F087B3FA83F6002E4AD18B4202D3824299
:1003180000F2F980841A61EB030301209E46002D48
:10032800E0D0C5E9004EDDE702B9FFDEB2FA82F29D
:10033800002A40F09280A1EB0C014FEA1C471FFAFB
:100348008CFE0126200CB1FBF7F307FB131140EAE2
:1003580001410EFB03F0884208D91CEB010103F1AF
:10036800FF3802D2884200F2CB804346091AA4B271
:10037800B1FBF7F007FB101144EA01440EFB00FE45
:10038800A64508D91CEB040400F1FF3102D2A645AA
:1003980000F2BB800846A4EB0E0440EA03409CE749
:1003A800C6F12007B34022FA07FC4CEA030C20FAF6
:1003B80007F401FA06F31C43F9404FEA1C4900FA16
:1003C80006F3B1FBF9F8200C1FFA8CFE09FB181193
:1003D80040EA014108FB0EF0884202FA06F20BD906
:1003E8001CEB010108F1FF3A80F08880884240F256
:1003F8008580A8F102086144091AA4B2B1FBF9F09A
:1004080009FB101144EA014100FB0EFE8E4508D994
:100418001CEB010100F1FF346CD28E456AD9023819
:10042800614440EA0840A0FB0294A1EB0E01A142FE
:10043800C846A64656D353D05DB1B3EB080261EB6C
:100448000E0101FA07F722FA06F3F1401F43C5E946
:10045800007100263146BDE8F087C2F12003D8407C
:100468000CFA02FC21FA03F3914001434FEA1C47BE
:100478001FFA8CFEB3FBF7F007FB10360B0C43EAB0
:10048800064300FB0EF69E4204FA02F408D91CEB60
:10049800030300F1FF382FD29E422DD9023863445E
:1004A8009B1B89B2B3FBF7F607FB163341EA0341FE
:1004B80006FB0EF38B4208D91CEB010106F1FF384D
:1004C80016D28B4214D9023E6144C91A46EA004644
:1004D80038E72E46284605E70646E3E61846F8E6D6
:1004E8004B45A9D2B9EB020864EB0C0E0138A3E71F
:1004F8004646EAE7204694E74046D1E7D0467BE700
:10050800023B614432E7304609E76444023842E777
:10051800704700BF80B500AF00F0D9FA00F00BF8C3
:1005280000F04AF800F08EF900F0ECF800F03AF923
:1005380000F098F8FEE780B594B000AF07F1180313
:1005480038220021184602F0E3FE3B1D00221A6003
:100558005A609A60DA601A614FF4007000F08EFDFC
:100568000223BB614FF480737B624023BB6200238C
:100578007B6307F11803184600F034FE0346002B8E
:1005880001D000F077F90F237B600123BB600023C3
:10059800FB6000233B6100237B613B1D0021184663
:1005A80001F032F90346002B01D000F063F900BFD7
:1005B8005037BD4680BD000080B588B000AF07F158
:1005C8000C0300221A605A609A60DA601A613B468E
:1005D80000221A605A609A60204B214A1A601F4B09
:1005E80000225A601D4B00229A601C4B4FF6FF7286
:1005F800DA601A4B00221A61184B00225A61174B15
:1006080000229A61154801F00BFD0346002B01D02A
:1006180000F030F90723FB6000233B6107F10C036E
:1006280019460E4801F053FD0346002B01D000F097
:1006380021F900233B6000237B600023BB603B461D
:100648001946064801F066FF0346002B01D000F06A
:1006580011F900BF2037BD4680BD00BF280000202B
:10066800002C014080B588B000AF07F10C030022D0
:100678001A605A609A60DA601A613B4600221A6072
:100688005A609A601E4B4FF080421A601C4B002241
:100698005A601B4B00229A60194B4FF0FF32DA6008
:1006A800174B00221A61164B00229A61144801F078
:1006B800B7FC0346002B01D000F0DCF80723FB60F1
:1006C80010233B6107F10C0319460D4801F0FFFCAC
:1006D8000346002B01D000F0CDF800233B60002337
:1006E800BB603B461946064801F014FF0346002B41
:1006F80001D000F0BFF800BF2037BD4680BD00BF65
:100708007400002080B588B000AF07F10C03002208
:100718001A605A609A60DA601A613B4600221A60D1
:100728005A609A601D4B1E4A1A601C4B00225A6080
:100738001A4B00229A60194B4FF6FF72DA60174B7A
:1007480000221A61154B00229A61144801F068FCD6
:100758000346002B01D000F08DF80723FB6020230F
:100768003B6107F10C0319460C4801F0B0FC034645
:10077800002B01D000F07EF800233B600023BB6013
:100788003B461946054801F0C5FE0346002B01D03B
:1007980000F070F800BF2037BD4680BDC0000020C3
:1007A8000004004080B500AF244B254A1A60234B53
:1007B8004FF4E1325A60214B00229A601F4B00220D
:1007C800DA601E4B00221A611C4B0C225A611B4B2B
:1007D80000229A61194B0022DA61184B00221A6232
:1007E800164B00225A62154B00229A6200230022FF
:1007F8000021124802F0FBFB0346002B01D000F059
:1008080039F800210D4802F094FC0346002B01D072
:1008180000F030F80021094802F0C9FC0346002B1B
:1008280001D000F027F8054802F04AFC0346002BE7
:1008380001D000F01FF800BF80BD00BF0C010020F0
:100848000038014080B483B000AF094BDB6C084A24
:1008580043F00103D364064BDB6C03F001037B60B8
:100868007B6800BF0C37BD465DF8047B704700BF4E
:100878000010024080B400AF72B600BFFEE700006F
:1008880080B582B000AF0F4B1B6E0E4A43F00103D8
:1008980013660C4B1B6E03F001037B607B68094BEE
:1008A8009B6D084A43F080539365064B9B6D03F09C
:1008B80080533B603B6800F085FC00BF0837BD46AD
:1008C80080BD00BF0010024080B487B000AF7860E0
:1008D8007B681B681C4A93420CD11C4B1B6E1B4A3D
:1008E80043F400631366194B1B6E03F400637B61CA
:1008F8007B6922E07B681B68B3F1804F0CD1134BF6
:100908009B6D124A43F001039365104B9B6D03F0F6
:1009180001033B613B6910E07B681B680C4A93420A
:100928000BD10A4B9B6D094A43F002039365074BB1
:100938009B6D03F00203FB60FB6800BF1C37BD46DC
:100948005DF8047B704700BF002C01400010024096
:100958000004004080B59AB000AF786007F15403F6
:1009680000221A605A609A60DA601A6107F110036F
:1009780044220021184602F0CBFC7B681B681F4A02
:10098800934237D101233B6100237B6107F11003B8
:10099800184601F055F90346002B01D0FFF76AFF0E
:1009A800174B1B6E164A43F480431366144B1B6E99
:1009B80003F48043FB60FB68114BDB6C104A43F087
:1009C8000103D3640E4BDB6C03F00103BB60BB680F
:1009D8004FF4B0537B650223BB650023FB650023FE
:1009E8003B6607237B6607F1540319464FF0904096
:1009F80000F0C2F900BF6837BD4680BD003801402D
:100A08000010024080B400AFFEE780B400AFFEE7FC
:100A180080B400AFFEE780B400AFFEE780B400AF5B
:100A2800FEE780B400AF00BFBD465DF8047B7047A9
:100A380080B400AF00BFBD465DF8047B704780B44A
:100A480000AF00BFBD465DF8047B704780B500AFBE
:100A580000F090F800BF80BD80B400AF064BD3F81B
:100A68008830054A43F47003C2F8883000BFBD4699
:100A78005DF8047B704700BF00ED00E00D48854637
:100A8800FFF7EAFF0C480D490D4A002302E0D4584D
:100A9800C4500433C4188C42F9D30A4A0A4C0023C0
:100AA80001E013600432A242FBD302F00DFCFFF711
:100AB80031FDFEE700800020000000200C0000202F
:100AC800903300080C000020A4010020FEE780B548
:100AD80082B000AF0023FB71032000F01BF90F2048
:100AE80000F00EF80346002B02D00123FB7101E051
:100AF800FFF7C6FEFB7918460837BD4680BD0000E3
:100B080080B584B000AF78600023FB73164B1B6878
:100B1800002B22D0154B1A68134B1B684FF47A71BF
:100B2800B1FBF3F3B2FBF3F3184600F018F90346F0
:100B3800002B0FD17B680F2B09D8002279684FF062
:100B4800FF3000F0F2F80A4A7B68136007E00123DF
:100B5800FB7304E00123FB7301E00123FB73FB7BC0
:100B680018461037BD4680BD080000200000002050
:100B78000400002080B400AF054B1A68054B1B68C1
:100B88001344034A136000BFBD465DF8047B7047F9
:100B9800A00100200800002080B400AF034B1B68B0
:100BA8001846BD465DF8047B704700BFA0010020D1
:100BB80080B485B000AF78607B6803F00703FB6002
:100BC8000C4BDB68BB60BA684FF6FF031340BB6091
:100BD800FB681A02BB68134343F0BF6343F4003356
:100BE800BB60044ABB68D36000BF1437BD465DF8DC
:100BF800047B704700ED00E080B400AF044BDB6875
:100C08001B0A03F007031846BD465DF8047B7047CE
:100C180000ED00E080B483B000AF03463960FB719B
:100C280097F90730002B0ADB3B68DAB20C4997F9D1
:100C380007301201D2B20B4483F800230AE03B6864
:100C4800DAB20849FB7903F00F03043B1201D2B270
:100C58000B441A7600BF0C37BD465DF8047B70471D
:100C680000E100E000ED00E080B489B000AFF8607A
:100C7800B9607A60FB6803F00703FB61FB69C3F1A5
:100C88000703042B28BF0423BB61FB690433062B2D
:100C980002D9FB69033B00E000237B614FF0FF3280
:100CA800BB6902FA03F3DA43BB681A407B699A40CE
:100CB8004FF0FF317B6901FA03F3D9437B680B409E
:100CC800134318462437BD465DF8047B704700007F
:100CD80080B582B000AF78607B68013BB3F1807F5C
:100CE80001D301230FE00A4A7B68013B53600F21BF
:100CF8004FF0FF30FFF78EFF054B00229A60044B40
:100D080007221A60002318460837BD4680BD00BF79
:100D180010E000E080B582B000AF78607868FFF737
:100D280047FF00BF0837BD4680BD80B586B000AF1D
:100D38000346B9607A60FB73FFF75EFF78617A68F3
:100D4800B9687869FFF790FF024697F90F301146A6
:100D58001846FFF75FFF00BF1837BD4680BD80B556
:100D680082B000AF78607868FFF7B2FF0346184694
:100D78000837BD4680BD000080B487B000AF7860FA
:100D8800396000237B615AE13B681A6801217B695D
:100D980001FA03F31340FB60FB68002B00F04C8161
:100DA8003B685B6803F00303012B05D03B685B6875
:100DB80003F00303022B30D17B689B683B617B699E
:100DC8005B00032202FA03F3DB433A6913403B61F9
:100DD8003B68DA687B695B0002FA03F33A691343FC
:100DE8003B617B683A699A607B685B683B6101227A
:100DF8007B6902FA03F3DB433A6913403B613B68C2
:100E08005B681B0903F001027B6902FA03F33A6984
:100E180013433B617B683A695A603B685B6803F03F
:100E28000303032B17D07B68DB683B617B695B009E
:100E3800032202FA03F3DB433A6913403B613B6840
:100E48009A687B695B0002FA03F33A6913433B61D2
:100E58007B683A69DA603B685B6803F00303022B3E
:100E680023D17B69DA087B68083253F822303B616A
:100E78007B6903F007039B000F2202FA03F3DB43AD
:100E88003A6913403B613B681A697B6903F00703C1
:100E98009B0002FA03F33A6913433B617B69DA0862
:100EA8007B680832396943F822107B681B683B610C
:100EB8007B695B00032202FA03F3DB433A691340C0
:100EC8003B613B685B6803F003027B695B0002FAE5
:100ED80003F33A6913433B617B683A691A603B68DC
:100EE8005B6803F44033002B00F0A6805B4B1B6E5D
:100EF8005A4A43F001031366584B1B6E03F0010373
:100F0800BB60BB68564A7B699B08023352F82330A2
:100F18003B617B6903F003039B000F2202FA03F392
:100F2800DB433A6913403B617B68B3F1904F1FD0B4
:100F38007B684C4A934219D07B684B4A934213D042
:100F48007B684A4A93420DD07B68494A934207D04E
:100F58007B68484A934201D105230AE0062308E04A
:100F6800042306E0032304E0022302E0012300E057
:100F780000237A6902F00302920093403A6913430E
:100F88003B6137497B699B0802333A6941F8232062
:100F9800394B9B683B61FB68DB433A6913403B6113
:100FA8003B685B6803F48013002B03D03A69FB6845
:100FB80013433B61304A3B6993602F4BDB683B61CD
:100FC800FB68DB433A6913403B613B685B6803F4A9
:100FD8000013002B03D03A69FB6813433B61264A90
:100FE8003B69D360244B5B683B61FB68DB433A6930
:100FF80013403B613B685B6803F40033002B03D06C
:101008003A69FB6813433B611B4A3B6953601A4BBF
:101018001B683B61FB68DB433A6913403B613B68F3
:101028005B6803F48033002B03D03A69FB681343F1
:101038003B61114A3B6913607B6901337B613B6803
:101048001A687B6922FA03F3002B7FF49DAE00BF78
:1010580000BF1C37BD465DF8047B70470010024096
:10106800000001400004004800080048000C004847
:1010780000100048001400480004014080B485B006
:1010880000AF78607B68002B41D14B4B1B6803F4A1
:10109800C063B3F5806F31D1474BD3F88030464AEF
:1010A80023F48073C2F88030434B1B6823F4C06379
:1010B800414A43F400731360404B1B68322202FB21
:1010C80003F33F4AA2FB03239B0C0133FB6002E0BE
:1010D800FB68013BFB60384B5B6903F48063B3F545
:1010E800806F02D1FB68002BF2D1334B5B6903F4AC
:1010F8008063B3F5806F58D1032357E02E4BD3F8A4
:1011080080302D4A23F48073C2F880304DE07B682C
:10111800B3F5007F41D1284B1B6803F4C063B3F5D6
:10112800806F31D1244BD3F88030234A43F4807345
:10113800C2F88030204B1B6823F4C0631E4A43F476
:10114800007313601D4B1B68322202FB03F31C4A19
:10115800A2FB03239B0C0133FB6002E0FB68013B0D
:10116800FB60154B5B6903F48063B3F5806F02D1B4
:10117800FB68002BF2D1104B5B6903F48063B3F575
:10118800806F12D1032311E00B4BD3F880300A4A49
:1011980043F48073C2F8803007E0074B1B6823F4E0
:1011A800C063054A43F4806313600023184614376C
:1011B800BD465DF8047B70470070004000000020C9
:1011C80083DE1B4380B400AF054B9B68044A43F49D
:1011D8008043936000BFBD465DF8047B704700BF45
:1011E8000070004080B588B000AF78607B68002B45
:1011F80001D10123FEE27B681B6803F00103002B89
:1012080075D0974B9B6803F00C03BB61944BDB686C
:1012180003F003037B61BB690C2B02D17B69032BB1
:1012280002D0BB69082B0BD18D4B1B6803F400332C
:10123800002B5BD07B685B68002B57D10123D9E278
:101248007B685B68B3F5803F06D1854B1B68844A91
:1012580043F4803313601DE07B685B68B3F5A02F0F
:101268000CD17F4B1B687E4A43F4802313607C4B70
:101278001B687B4A43F4803313600BE0784B1B6890
:10128800774A23F480331360754B1B68744A23F440
:10129800802313607B685B68002B13D0FFF77CFC0E
:1012A800386108E0FFF778FC02463B69D31A642BE3
:1012B80001D903239EE26A4B1B6803F40033002B19
:1012C800F0D014E0FFF768FC386108E0FFF764FC31
:1012D80002463B69D31A642B01D903238AE2604B87
:1012E8001B6803F40033002BF0D100E000BF7B68DB
:1012F8001B6803F00203002B75D0594B9B6803F061
:101308000C03BB61564BDB6803F003037B61BB69CD
:101318000C2B02D17B69022B02D0BB69042B1FD195
:101328004F4B1B6803F48063002B05D07B68DB6898
:10133800002B01D101235DE2494B5B6823F0FE429B
:101348007B681B691B06464913434B60454B1B686A
:101358001846FFF7D5FB0346002B43D0012349E28B
:101368007B68DB68002B23D03D4B1B683C4A43F469
:1013780080731360FFF710FC386108E0FFF70CFC7E
:1013880002463B69D31A022B01D9032332E2344BBC
:101398001B6803F48063002BF0D0314B5B6823F0AB
:1013A800FE427B681B691B062D4913434B601AE0FC
:1013B8002B4B1B682A4A23F480731360FFF7ECFB5E
:1013C800386108E0FFF7E8FB02463B69D31A022BB5
:1013D80001D903230EE2224B1B6803F48063002B20
:1013E800F0D100E000BF7B681B6803F00803002B06
:1013F80041D07B685B69002B1CD0194BD3F8943023
:10140800174A43F00103C2F89430FFF7C5FB38616F
:1014180008E0FFF7C1FB02463B69D31A022B01D94A
:101428000323E7E10E4BD3F8943003F00203002BBB
:10143800EFD020E00A4BD3F89430094A23F0010397
:10144800C2F89430FFF7A8FB38610DE0FFF7A4FB62
:1014580002463B69D31A022B06D90323CAE100BF0F
:1014680000100240040000208C4BD3F8943003F0A5
:101478000203002BEAD17B681B6803F00403002BEE
:1014880000F0A6800023FB77844B9B6D03F080530C
:10149800002B01D1012300E00023002B0DD07F4B4E
:1014A8009B6D7E4A43F0805393657C4B9B6D03F0A4
:1014B8008053FB60FB680123FB77794B1B6803F4BF
:1014C8008073002B18D1764B1B68754A43F48073E0
:1014D8001360FFF761FB386108E0FFF75DFB024628
:1014E8003B69D31A022B01D9032383E16C4B1B6898
:1014F80003F48073002BF0D07B689B68012B08D124
:10150800664BD3F89030654A43F00103C2F8903037
:1015180024E07B689B68052B10D1604BD3F8903092
:101528005E4A43F00403C2F890305C4BD3F8903025
:101538005A4A43F00103C2F890300FE0574BD3F8F2
:101548009030564A23F00103C2F89030534BD3F839
:101558009030524A23F00403C2F890307B689B68AD
:10156800002B16D0FFF718FB38610AE0FFF714FBD1
:1015780002463B69D31A41F28832934201D90323C8
:1015880038E1464BD3F8903003F00203002BEDD03E
:1015980015E0FFF701FB38610AE0FFF7FDFA0246A4
:1015A8003B69D31A41F28832934201D9032321E1DE
:1015B8003A4BD3F8903003F00203002BEDD1FB7FB8
:1015C800012B05D1354B9B6D344A23F0805393652D
:1015D8007B681B6803F02003002B3CD07B689B6969
:1015E800002B1CD02D4BD3F898302C4A43F0010324
:1015F800C2F89830FFF7D0FA386108E0FFF7CCFA64
:1016080002463B69D31A022B01D90323F2E0234B8C
:10161800D3F8983003F00203002BEFD01BE01F4BE8
:10162800D3F898301D4A23F00103C2F89830FFF729
:10163800B3FA386108E0FFF7AFFA02463B69D31AFC
:10164800022B01D90323D5E0144BD3F8983003F0CB
:101658000203002BEFD17B68DB69002B00F0C98007
:101668000E4B9B6803F00C030C2B00F083807B6807
:10167800DB69022B5ED1094B1B68084A23F0807393
:101688001360FFF789FA38610CE0FFF785FA024624
:101698003B69D31A022B05D90323ABE000100240A3
:1016A80000700040554B1B6803F00073002BECD111
:1016B800524BDA68524B13407A68116A7A68526A58
:1016C800013A120111437A68926A120211437A6848
:1016D800126B5208013A520511437A68526B52084C
:1016E800013A520611437A68D26AD2060A4343493C
:1016F8001343CB60414B1B68404A43F0807313602F
:101708003E4BDB683D4A43F08073D360FFF744FAF1
:10171800386108E0FFF740FA02463B69D31A022B0A
:1017280001D9032366E0354B1B6803F00073002BD7
:10173800F0D05EE0314B1B68304A23F080731360B1
:10174800FFF72AFA386108E0FFF726FA02463B69F4
:10175800D31A022B01D903234CE0284B1B6803F052
:101768000073002BF0D1254BDA682449254B134030
:10177800CB603EE07B68DB69012B01D1012339E0B6
:101788001E4BDB687B617B6903F003027B681B6A85
:101798009A422CD17B6903F0F0027B685B6A013BBB
:1017A8001B019A4223D17B6903F4FE427B689B6A42
:1017B8001B029A421BD17B6903F078427B68DB6A83
:1017C800DB069A4213D17B6903F4C0027B681B6B6A
:1017D8005B08013B5B059A4209D17B6903F0C06253
:1017E8007B685B6B5B08013B5B069A4201D0012377
:1017F80000E0002318462037BD4680BD0010024097
:101808000C809F01FCFFEEFE80B586B000AF7860CB
:10181800396000237B617B68002B01D101231EE125
:10182800914B1B6803F00F033A689A4210D98E4B0C
:101838001B6823F00F028C493B6813430B608A4BEB
:101848001B6803F00F033A689A4201D0012306E1AE
:101858007B681B6803F00103002B73D07B685B680F
:10186800032B29D1814B1B6803F00073002B01D196
:101878000123F4E000F09EF938613B697C4A934209
:101888003FD97A4B9B6803F0F003002B09D07B68A3
:101898001B6803F00203002B33D07B689B68002B86
:1018A8002FD1724B9B6823F0F003704A43F08003FA
:1018B800936080237B6124E07B685B68022B07D1FF
:1018C8006A4B1B6803F40033002B09D10123C6E0DF
:1018D800664B1B6803F48063002B01D10123BEE033
:1018E80000F0CEF838613B69614A934209D95F4BF1
:1018F8009B6823F0F0035D4A43F0800393608023E4
:101908007B615A4B9B6823F003027B685B685749ED
:1019180013438B60FFF740F9F8600AE0FFF73CF9E2
:101928000246FB68D31A41F28832934201D9032355
:1019380095E04E4B9B6803F00C027B685B689B004C
:101948009A42EBD17B681B6803F00203002B23D07B
:101958007B681B6803F00403002B05D0434B9B688E
:10196800424A43F4E06393607B681B6803F0080312
:10197800002B07D03D4B9B6823F47C533B4A43F430
:10198800E0639360394B9B6823F0F0027B689B68A7
:10199800364913438B6008E07B69802B05D1334BB4
:1019A8009B68324A23F0F00393602F4B1B6803F0C7
:1019B8000F033A689A421DD22B4B1B6823F00F0283
:1019C80029493B6813430B60FFF7E6F8F8600AE023
:1019D800FFF7E2F80246FB68D31A41F288329342D5
:1019E80001D903233BE0204B1B6803F00F033A683F
:1019F8009A42EDD17B681B6803F00403002B08D0E2
:101A08001A4B9B6823F4E0627B68DB681749134331
:101A18008B607B681B6803F00803002B09D0134B0D
:101A28009B6823F460527B681B69DB000F491343F2
:101A38008B6000F025F802460C4B9B681B0903F0ED
:101A48000F030C49CB5C03F01F0322FA03F30A4A85
:101A580013600A4B1B681846FFF752F803461846EE
:101A68001837BD4680BD00BF00200240001002406C
:101A780000B4C40440330008000000200400002023
:101A880080B487B000AF2C4B9B6803F00C03042B89
:101A980002D12A4B3B6147E0274B9B6803F00C03BC
:101AA800082B02D1264B3B613EE0234B9B6803F099
:101AB8000C030C2B36D1204BDB6803F00303FB60CF
:101AC8001D4BDB681B0903F00F030133BB60FB6888
:101AD800032B0CD11A4ABB68B2FBF3F3164AD2683F
:101AE800120A02F07F0202FB03F37B610CE0134A47
:101AF800BB68B2FBF3F3104AD268120A02F07F0205
:101B080002FB03F37B6100BF0B4BDB685B0E03F04A
:101B1800030301335B007B607A697B68B2FBF3F3F4
:101B28003B6101E000233B613B6918461C37BD4619
:101B38005DF8047B704700BF001002400024F400E9
:101B480000127A0080B400AF034B1B681846BD46EC
:101B58005DF8047B704700BF0000002080B500AF2F
:101B6800FFF7F0FF0246064B9B681B0A03F00703CA
:101B78000449CB5C03F01F0322FA03F3184680BD27
:101B8800001002405033000880B500AFFFF7DAFFBD
:101B98000246064B9B68DB0A03F007030449CB5C4B
:101BA80003F01F0322FA03F3184680BD0010024019
:101BB8005033000880B487B000AF1E4BDB6803F0D9
:101BC80003033B611B4BDB681B0903F00F03013365
:101BD800FB603B69032B0CD1174AFB68B2FBF3F39C
:101BE800144AD268120A02F07F0202FB03F37B61F7
:101BF8000CE0124AFB68B2FBF3F30E4AD268120AF1
:101C080002F07F0202FB03F37B6100BF094BDB6834
:101C18005B0E03F0030301335B00BB607A69BB68AA
:101C2800B2FBF3F37B607B6818461C37BD465DF852
:101C3800047B70470010024000127A000024F40070
:101C480080B586B000AF78600023FB740023BB74B6
:101C58007B681B6803F40023002B00F098800023A6
:101C68007B74434B9B6D03F08053002B0DD1404B8D
:101C78009B6D3F4A43F0805393653D4B9B6D03F04A
:101C88008053BB60BB6801237B743A4B1B68394A9D
:101C980043F480731360FEF77FFFF86009E0FEF7F6
:101CA8007BFF0246FB68D31A022B02D90323FB747D
:101CB80005E0304B1B6803F48073002BEFD0FB7CEE
:101CC800002B59D12A4BD3F8903003F440737B6131
:101CD8007B69002B1ED07B681B6C7A699A4219D0ED
:101CE800234BD3F8903023F440737B61204BD3F817
:101CF80090301F4A43F48033C2F890301C4BD3F81D
:101D080090301B4A23F48033C2F89030184A7B691C
:101D1800C2F890307B6903F00103002B16D0FEF760
:101D28003BFFF8600BE0FEF737FF0246FB68D31A6B
:101D380041F28832934202D90323FB7406E00C4B2C
:101D4800D3F8903003F00203002BECD0FB7C002B7F
:101D58000BD1074BD3F8903023F440727B681B6C8F
:101D680003491343C1F8903008E0FB7CBB7405E0DD
:101D78000010024000700040FB7CBB747B7C012B90
:101D880005D1A64B9B6DA54A23F0805393657B68CC
:101D98001B6803F00103002B0AD0A04BD3F888304E
:101DA80023F003027B685B689C491343C1F88830C1
:101DB8007B681B6803F00203002B0AD0974BD3F80B
:101DC800883023F00C027B689B6894491343C1F860
:101DD80088307B681B6803F00403002B0AD08F4B04
:101DE800D3F8883023F030027B68DB688B491343D3
:101DF800C1F888307B681B6803F00803002B0AD001
:101E0800864BD3F8883023F0C0027B681B6983496E
:101E18001343C1F888307B681B6803F02003002B4C
:101E28000AD07E4BD3F8883023F440627B685B6924
:101E38007A491343C1F888307B681B6803F0400374
:101E4800002B0AD0754BD3F8883023F440527B68B6
:101E58009B6972491343C1F888307B681B6803F09B
:101E68008003002B0AD06D4BD3F8883023F440420E
:101E78007B68DB6969491343C1F888307B681B6854
:101E880003F48073002B0AD0644BD3F8883023F412
:101E980040327B681B6A61491343C1F888307B680C
:101EA8001B6803F40073002B0AD05C4BD3F888300E
:101EB80023F440227B685B6A58491343C1F8883091
:101EC8007B681B6803F48063002B15D0534BD3F851
:101ED800883023F440127B689B6A50491343C1F849
:101EE80088307B689B6AB3F5801F05D14B4BDB6854
:101EF8004A4A43F48013D3607B681B6803F4006389
:101F0800002B15D0454BD3F8883023F440027B686A
:101F1800DB6A42491343C1F888307B68DB6AB3F552
:101F2800800F05D13D4BDB683C4A43F48013D360F6
:101F38007B681B6803F48053002B15D0374BD3F80C
:101F4800883023F040727B681B6B34491343C1F817
:101F580088307B681B6BB3F1807F05D12F4BDB6822
:101F68002E4A43F48013D3607B681B6803F4005344
:101F7800002B15D0294BD3F8883023F040627B68BA
:101F88005B6B26491343C1F888307B685B6BB3F100
:101F9800006F05D1214BDB68204A43F48013D360DE
:101FA8007B681B6803F48043002B15D01B4BD3F8C8
:101FB800883023F040627B689B6B18491343C1F853
:101FC80088307B689B6BB3F1006F05D1134BDB68DE
:101FD800124A43F48013D3607B681B6803F4004300
:101FE800002B15D00D4BD3F8883023F040527B6876
:101FF800DB6B0A491343C1F888307B68DB6BB3F1AC
:10200800805F05D1054BDB68044A43F48033D36015
:10201800BB7C18461837BD4680BD00BF0010024083
:1020280080B582B000AF78607B68002B01D10123B6
:1020380049E07B6893F83D30DBB2002B06D17B6822
:10204800002283F83C207868FEF73EFC7B68022279
:1020580083F83D207B681A687B680433194610466C
:1020680000F078F87B68012283F848207B68012219
:1020780083F83E207B68012283F83F207B68012299
:1020880083F840207B68012283F841207B68012285
:1020980083F842207B68012283F843207B68012271
:1020A80083F844207B68012283F845207B6801225D
:1020B80083F846207B68012283F847207B68012249
:1020C80083F83D20002318460837BD4680BD80B5FB
:1020D80082B000AF786039607B6893F83C30012BA0
:1020E80001D1022331E07B68012283F83C207B6820
:1020F800022283F83D203968786800F0C7F8034663
:10210800002B09D07B68012283F83D207B680022E0
:1021180083F83C20012318E07B681B68DA687B6839
:102128001B6822F04002DA607B681B68DA687B680B
:102138001B6822F48042DA607B68012283F83D2024
:102148007B68002283F83C20002318460837BD46E8
:1021580080BD000080B485B000AF786039607B68CE
:102168001B68FB607B68424A93420FD07B68B3F1DF
:10217800804F0BD07B683F4A934207D07B683E4A2A
:10218800934203D07B683D4A934208D1FB6823F011
:102198007003FB603B685B68FA681343FB607B680D
:1021A800334A93421BD07B68B3F1804F17D07B68CA
:1021B800304A934213D07B682F4A93420FD07B68F2
:1021C8002E4A93420BD07B682D4A934207D07B68F6
:1021D8002C4A934203D07B682B4A934208D1FB6870
:1021E80023F44073FB603B68DB68FA681343FB60C9
:1021F800FB6823F080023B685B691343FB607B68E4
:10220800FA681A603B689A687B68DA623B681A6801
:102218007B689A627B68164A93420FD07B68174A9C
:1022280093420BD07B68164A934207D07B68154AC5
:10223800934203D07B68144A934203D13B681A69DE
:102248007B681A637B6801225A617B681B6903F00B
:102258000103012B05D17B681B6923F001027B6810
:102268001A6100BF1437BD465DF8047B704700BF94
:10227800002C0140000400400008004000340140E8
:1022880000400140004401400048014080B586B04C
:1022980000AF786039600023FB757B681B689B681A
:1022A8003B613B6923F4401323F070033B613B68B7
:1022B8005B683A6913433B613B6923F4803323F03D
:1022C80007033B613B681B683A6913433B617B68C2
:1022D8001B683A699A603B685B684A4A934200F017
:1022E8008A80484A934200F28380474A934200F02A
:1022F8008280454A93427BD8444A93427BD0434AE2
:10230800934275D8424A934275D0414A93426FD856
:10231800B3F1101F6FD0B3F1101F69D8702B1AD00A
:10232800702B65D8602B59D0602B61D8502B4BD0BF
:10233800502B5DD8402B19D0402B59D8302B5AD070
:10234800302B55D8202B56D0202B51D8002B52D0CB
:10235800102B50D04CE07B6818683B68D9683B6804
:102368009A683B681B6900F0B4F845E03B681B6855
:10237800052B04D03B681B68B3F1011F01D1012371
:102388003BE07B681B681B6AFB607B681B681A6AFA
:102398007B681B6822F001021A627B681B689B69D4
:1023A800BB60BB6823F0F003BB603B681B691B0183
:1023B800BA681343BB607B681B68BA689A617B681C
:1023C8001B68FA681A6217E07B6818683B689968A6
:1023D8003B681B691A4600F01DF80DE07B68186819
:1023E8003B6899683B681B691A4600F042F803E0AD
:1023F8000123FB7500E000BFFB7D18461837BD467A
:1024080080BD00BF700010004000100030001000B8
:102418002000100080B487B000AFF860B9607A601F
:10242800FB681B6A7B61FB681B6A23F00102FB687F
:102438001A62FB689B693B613B6923F0F0033B61CF
:102448007B681B013A6913433B617B6923F00A03EC
:102458007B617A69BB6813437B61FB683A699A615F
:10246800FB687A691A6200BF1C37BD465DF8047BB9
:10247800704780B487B000AFF860B9607A60FB68D5
:102488001B6A7B61FB681B6A23F01002FB681A62F7
:10249800FB689B693B613B6923F470433B617B6844
:1024A8001B033A6913433B617B6923F0A0037B61FB
:1024B800BB681B017A6913437B61FB683A699A61BF
:1024C800FB687A691A6200BF1C37BD465DF8047B59
:1024D800704780B487B000AFF860B9607A603B603D
:1024E800FB689B687B617B6923F47F437B613B6866
:1024F8001A027B681A43BB6813437A6913437B61EA
:10250800FB687A699A6000BF1C37BD465DF8047B9A
:102518007047000080B485B000AF786039607B6890
:1025280093F83C30012B01D1022365E07B6801223E
:1025380083F83C207B68022283F83D207B681B6877
:102548005B68FB607B681B689B68BB607B681B687B
:102558002C4A934204D07B681B682B4A934208D1CB
:10256800FB6823F47003FB603B685B68FA681343FD
:10257800FB60FB6823F0007323F07003FB603B688B
:102588001B68FA681343FB607B681B68FA685A602B
:102598007B681B681B4A934218D07B681B68B3F1A1
:1025A800804F13D07B681B68184A93420ED07B6813
:1025B8001B68174A934209D07B681B68124A9342EA
:1025C80004D07B681B68134A93420CD1BB6823F084
:1025D8008003BB603B689B68BA681343BB607B6839
:1025E8001B68BA689A607B68012283F83D207B6883
:1025F800002283F83C20002318461437BD465DF8B6
:10260800047B7047002C0140003401400004004066
:1026180000080040004001402DE9B04F8CB000AFE9
:102628007861002387F82A307B699A687B691B697F
:102638001A437B695B691A437B69DB691343FB6255
:102648007B691B681A68AB4B13407A691268F96A90
:102658000B4313607B691B685B6823F440517B69FB
:10266800DA687B691B680A435A607B699B69FB626D
:102678007B691B68A04A934204D07B691B6AFA6A8B
:102688001343FB627B691B689B6823F06E4323F44A
:1026980030637A691268F96A0B4393607B691B6837
:1026A800DB6A23F00F017B695A6A7B691B680A435E
:1026B800DA627B691B68914A934225D1904BD3F823
:1026C800883003F00303032B1AD801A252F823F031
:1026D800E9260008F9260008F12600080127000865
:1026E800012387F82B30D6E0022387F82B30D2E07D
:1026F800042387F82B30CEE0082387F82B30CAE074
:10270800102387F82B30C6E07B691B687D4A93420B
:1027180038D17B4BD3F8883003F00C030C2B2DD821
:1027280001A252F823F000BF65270008852700089A
:1027380085270008852700087527000885270008D1
:1027480085270008852700086D27000885270008C9
:1027580085270008852700087D270008002387F8BB
:102768002B3098E0022387F82B3094E0042387F875
:102778002B3090E0082387F82B308CE0102387F863
:102788002B3088E07B691B685F4A934225D15C4BFC
:10279800D3F8883003F03003302B16D0302B18D8FC
:1027A800202B0AD0202B14D8002B02D0102B08D0B5
:1027B8000FE0002387F82B306DE0022387F82B30D9
:1027C80069E0042387F82B3065E0082387F82B306D
:1027D80061E0102387F82B305DE07B691B684B4A6A
:1027E800934225D1464BD3F8883003F0C003C02B61
:1027F80016D0C02B18D8802B0AD0802B14D8002BC9
:1028080002D0402B08D00FE0002387F82B3042E09D
:10281800022387F82B303EE0042387F82B303AE078
:10282800082387F82B3036E0102387F82B3032E066
:102838007B691B68304A93422AD1314BD3F88830E0
:1028480003F44063B3F5406F1AD0B3F5406F1BD85B
:10285800B3F5006F0CD0B3F5006F15D8002B03D07B
:10286800B3F5806F08D00FE0002387F82B3012E013
:10287800022387F82B300EE0042387F82B300AE078
:10288800082387F82B3006E0102387F82B3002E066
:10289800102387F82B307B691B68174A934240F056
:1028A800A88097F82B30082B34D801A252F823F0CF
:1028B800DD2800081D290008E52800081D29000852
:1028C800EB2800081D2900081D2900081D290008FB
:1028D800F3280008FFF742F9786221E00C4B7B628D
:1028E8001EE0FFF7CDF878621AE04FF400437B62F0
:1028F80016E000BFF369FFCF0080004000380140B8
:10290800001002400044004000480040004C0040D5
:102918000024F40000237B62012387F82A3000BFDB
:102928007B6A002B00F02A817B695B6A9E4A32F839
:1029380013301A467B6AB3FBF2F3BB617B695A68B2
:1029480013465B001344BA699A4205D37B695B68F6
:102958001B03BA699A4203D9012387F82A300DE18B
:102968007B6A0022BB60FA607B695B6A8E4A32F838
:1029780013309BB200223B607A60D7E90023D7E985
:102988000201FDF745FC02460B46104619464FF07A
:1029980000024FF000030B0243EA10630202796958
:1029A8004968490800200C46054612EB040843EB29
:1029B80005097B695B6800229A46934652465B4646
:1029C80040464946FDF724FC02460B4613463B6247
:1029D8003B6AB3F5407F08D33B6AB3F5801F04D246
:1029E8007B691B683A6ADA60C8E0012387F82A30F5
:1029F800C4E07B69DB69B3F5004F67D197F82B30EA
:102A0800082B28D801A252F823F000BF392A000861
:102A1800412A0008492A00085F2A00084F2A0008AE
:102A28005F2A00085F2A00085F2A0008572A000862
:102A3800FFF794F8786214E0FFF7A6F8786210E0E0
:102A48005A4B7B620DE0FFF71BF8786209E04FF400
:102A580000437B6205E000237B62012387F82A306C
:102A680000BF7B6A002B00F089807B695B6A4E4A55
:102A780032F813301A467B6AB3FBF2F35A007B69CB
:102A88005B685B081A447B695B68B2FBF3F33B62E3
:102A98003B6A0F2B16D93B6AB3F5803F12D23B6ACB
:102AA8009BB223F00F03FB833B6A5B089BB203F0E6
:102AB80007039AB2FB8B1343FB837B691B68FA8B72
:102AC800DA605BE0012387F82A3057E097F82B306B
:102AD800082B28D801A252F823F000BF092B0008C0
:102AE800112B0008192B00082F2B00081F2B00089A
:102AF8002F2B00082F2B00082F2B0008272B00084E
:102B0800FFF72CF8786214E0FFF73EF8786210E0DF
:102B1800264B7B620DE0FEF7B3FF786209E04FF4C5
:102B280000437B6205E000237B62012387F82A309B
:102B380000BF7B6A002B21D07B695B6A1A4A32F896
:102B480013301A467B6AB3FBF2F27B695B685B0859
:102B58001A447B695B68B2FBF3F33B623B6A0F2B59
:102B680009D93B6AB3F5803F05D23B6A9AB27B69C3
:102B78001B68DA6002E0012387F82A307B690122AA
:102B8800A3F86A207B690122A3F868207B690022E8
:102B98005A677B6900229A6797F82A3018463037B7
:102BA800BD46BDE8B08F00BF583300080024F400CC
:102BB80080B483B000AF78607B689B6A03F0080339
:102BC800002B0AD07B681B685B6823F400417B6894
:102BD8009A6B7B681B680A435A607B689B6A03F0A0
:102BE8000103002B0AD07B681B685B6823F4003163
:102BF8007B68DA6A7B681B680A435A607B689B6A51
:102C080003F00203002B0AD07B681B685B6823F47F
:102C180080317B681A6B7B681B680A435A607B6843
:102C28009B6A03F00403002B0AD07B681B685B686F
:102C380023F480217B685A6B7B681B680A435A60BF
:102C48007B689B6A03F01003002B0AD07B681B6823
:102C58009B6823F480517B68DA6B7B681B680A43A6
:102C68009A607B689B6A03F02003002B0AD07B687C
:102C78001B689B6823F400517B681A6C7B681B688F
:102C88000A439A607B689B6A03F04003002B1AD0C2
:102C98007B681B685B6823F480117B685A6C7B68CF
:102CA8001B680A435A607B685B6CB3F5801F0AD1C6
:102CB8007B681B685B6823F4C0017B689A6C7B683F
:102CC8001B680A435A607B689B6A03F08003002BE9
:102CD8000AD07B681B685B6823F400217B68DA6C88
:102CE8007B681B680A435A6000BF0C37BD465DF815
:102CF800047B704780B598B002AF78607B6800228B
:102D0800C3F89020FDF748FF78657B681B681B684F
:102D180003F00803082B2FD16FF07E4300937B6DDF
:102D280000224FF40011786800F08EF80346002B5B
:102D380022D07B681B68BB63BB6B53E8003F7B6397
:102D48007B6B23F080033B657B681B681A463B6DF1
:102D58007B643A64396C7A6C41E80023FB63FB6B53
:102D6800002BE6D17B682022C3F888207B680022EC
:102D780083F88420032363E07B681B681B6803F0E7
:102D88000403042B49D16FF07E4300937B6D00222E
:102D98004FF48001786800F057F80346002B3CD0C8
:102DA8007B681B687B627B6A53E8003F3B623B6A37
:102DB80023F49073FB647B681B681A46FB6C3B63C7
:102DC800FA62F96A3A6B41E80023BB62BB6A002BDE
:102DD800E6D17B681B6808333B613B6953E8003FD9
:102DE800FB60FB6823F00103BB647B681B68083346
:102DF800BA6CFA61BB61B969FA6941E800237B6181
:102E08007B69002BE5D17B682022C3F88C207B6886
:102E1800002283F88420032312E07B682022C3F871
:102E280088207B682022C3F88C207B680022DA6621
:102E38007B6800221A677B68002283F884200023BD
:102E480018465837BD4680BD80B584B000AFF860DD
:102E5800B9603B601346FB714FE0BB69B3F1FF3FBC
:102E68004BD0FDF799FE02463B68D31ABA699A42DD
:102E780002D3BB69002B01D103234EE0FB681B681A
:102E88001B6803F00403002B37D0BB68802B34D0B9
:102E9800BB68402B31D0FB681B68DB6903F0080373
:102EA800082B10D1FB681B6808221A62F86800F02A
:102EB80038F8FB680822C3F89020FB68002283F8E2
:102EC8008420012329E0FB681B68DB6903F40063A5
:102ED800B3F5006F11D1FB681B684FF400621A62EA
:102EE800F86800F01EF8FB682022C3F89020FB6801
:102EF800002283F8842003230FE0FB681B68DA694B
:102F0800BB681340BA689A420CBF01230023DBB2A6
:102F18001A46FB799A42A0D0002318461037BD46BE
:102F280080BD80B495B000AF78607B681B687B6318
:102F38007B6B53E8003F3B633B6B23F49073FB646C
:102F48007B681B681A46FB6C3B64FA63F96B3A6C46
:102F580041E80023BB63BB6B002BE6D17B681B6891
:102F680008333B623B6A53E8003FFB61FB6923F08F
:102F7800805323F00103BB647B681B680833BA6C79
:102F8800FA62BB62B96AFA6A41E800237B627B6A2B
:102F9800002BE3D17B68DB6E012B18D17B681B68A3
:102FA800FB60FB6853E8003FBB60BB6823F010037D
:102FB8007B647B681B681A467B6CBB617A617969A4
:102FC800BA6941E800233B613B69002BE6D17B6885
:102FD8002022C3F88C207B680022DA667B680022F6
:102FE8005A6700BF5437BD465DF8047B704780B50B
:102FF80086B000AFF860B9607A603B60FB68002B70
:1030080001D1012358E0FB68D3F88830002B06D1A2
:10301800FB68002283F88420F868FDF79BFCFB68B6
:103028002422C3F88820FB681B681A68FB681B68A1
:1030380022F001021A60FB689B6A002B02D0F86834
:10304800FFF7B6FDF868FFF7E7FA0346012B01D151
:10305800012331E0FB681B689A68FB681B6842F42F
:1030680080429A60FB681B689B6823F40041FB68F8
:103078001B68BA680A439A607B685B057B613B689A
:103088001B047A6913437B61FB681B681B6823F088
:103098007F7323F44033FA68126879690B4313602D
:1030A800FB681B681A68FB681B6842F001021A601B
:1030B800F868FFF71FFE034618461837BD4680BD5F
:1030C80080B485B000AF78607B6893F88430012BBA
:1030D80001D1022327E07B68012283F884207B68E2
:1030E8002422C3F888207B681B681B68FB607B6808
:1030F8001B681A687B681B6822F001021A60FB686B
:1031080023F00053FB607B6800225A667B681B68CB
:10311800FA681A607B682022C3F888207B6800223E
:1031280083F88420002318461437BD465DF8047BD5
:10313800704780B584B000AF786039607B6893F8D9
:103148008430012B01D102232DE07B68012283F812
:1031580084207B682422C3F888207B681B681B684E
:10316800FB607B681B681A687B681B6822F0010299
:103178001A607B681B689B6823F060417B681B684A
:103188003A680A439A60786800F050F87B681B68D0
:10319800FA681A607B682022C3F888207B680022BE
:1031A80083F88420002318461037BD4680BD80B5BB
:1031B80084B000AF786039607B6893F88430012B65
:1031C80001D102232DE07B68012283F884207B68EB
:1031D8002422C3F888207B681B681B68FB607B6817
:1031E8001B681A687B681B6822F001021A607B68FA
:1031F8001B689B6823F060617B681B683A680A4318
:103208009A60786800F012F87B681B68FA681A60A0
:103218007B682022C3F888207B68002283F88420FA
:10322800002318461037BD4680BD000080B485B025
:1032380000AF78607B685B6E002B08D17B68012249
:10324800A3F86A207B680122A3F8682031E00823EC
:10325800FB730823BB737B681B689B685B0EDBB240
:1032680003F007037B737B681B689B685B0FDBB20B
:1032780003F007033B73BB7B3A7B11498A5C02FB73
:1032880003F33A7B0F498A5C93FBF2F39AB27B68AB
:10329800A3F86A20FB7B7A7B09498A5C02FB03F36B
:1032A8007A7B08498A5C93FBF2F39AB27B68A3F8AD
:1032B800682000BF1437BD465DF8047B704700BF27
:1032C800703300087833000870B50D4D0D4C641B41
:1032D800A4100026A64209D10B4D0C4C00F020F892
:1032E800641BA4100026A64205D170BD55F8043B06
:1032F80098470136EEE755F8043B98470136F2E760
:103308008833000888330008883300088C330008A5
:1033180002440346934200D1704703F8011BF9E7C2
:10332800F8B500BFF8BC08BC9E467047F8B500BFAA
:08333800F8BC08BC9E4670477A
:103340000000000000000000010203040607080955
:103350000000000001020304010002000400060056
:1033600008000A000C00100020004000800000014E
:103370000101010307010000080402040801010122
:08338000C8CEFF7F0100000030
:04338800FD0100083B
:04338C00D90100085B
:0C3390000024F400100000000100000008
:0400000508000A8560
:00000001FF
